:100000000C947B030C94A3030C94A3030C94A30300
:100010000C94A3030C94A3030C94A3030C94A303C8
:100020000C94A3030C94A3030C9442080C94B10801
:100030000C94A3030C94A3030C94A3030C94A303A8
:100040000C94A3030C94A3030C94A3030C94A30398
:100050000C94A3030C94A3030C94A3030C94E30A41
:100060000C94A3030C94A3030C94A3030C94A30378
:100070000C94A3030C94A3030C94A3030C94A30368
:100080000C94A3030C94A3030C94A3030C94A30358
:100090000C94A3030C94A3030C94A3030C94A30348
:1000A0000C94A3030C94A3030C94A30305A84CCDB8
:1000B000B2D44EB93836A9020C50B9918688083CA2
:1000C000A6AAAA2ABE000000803F00000000003E51
:1000D0005B4F5B3E3E6B4F6B3E1C3E7C3E1C183CB8
:1000E0007E3C181C577D571C1C5E7F5E1C00183C14
:1000F0001800FFE7C3E7FF0018241800FFE7DBE75D
:10010000FF30483A060E2629792926407F05050743
:10011000407F05253F5A3CE73C5A7F3E1C1C08089F
:100120001C1C3E7F14227F22145F5F005F5F060964
:100130007F017F006689956A606060606094A2FFBD
:10014000A29408047E040810207E201008082A1CAF
:1001500008081C2A08081E101010100C1E0C1E0C7B
:1001600030383E3830060E3E0E060000000000001B
:10017000005F00000007000700147F147F14242A8A
:100180007F2A12231308646236495620500008075C
:100190000300001C2241000041221C002A1C7F1C7D
:1001A0002A08083E0808008070300008080808087F
:1001B000000060600020100804023E5149453E00E6
:1001C000427F400072494949462141494D33181444
:1001D000127F1027454545393C4A49493141211193
:1001E00009073649494936464949291E0000140085
:1001F00000004034000000081422411414141414A8
:10020000004122140802015909063E415D594E7C05
:100210001211127C7F494949363E414141227F41BA
:1002200041413E7F494949417F090909013E414118
:1002300051737F0808087F00417F41002040413F03
:10024000017F081422417F404040407F021C027F12
:100250007F0408107F3E4141413E7F090909063E67
:100260004151215E7F091929462649494932030136
:100270007F01033F4040403F1F2040201F3F403848
:10028000403F631408146303047804036159494D23
:1002900043007F4141410204081020004141417F59
:1002A00004020102044040404040000307080020CF
:1002B000545478407F2844443838444444283844CF
:1002C00044287F385454541800087E090218A4A406
:1002D0009C787F0804047800447D40002040403D25
:1002E000007F1028440000417F40007C047804789F
:1002F0007C080404783844444438FC182424181832
:10030000242418FC7C08040408485454542404048D
:100310003F44243C4040207C1C2040201C3C40307A
:10032000403C44281028444C9090907C4464544CA9
:100330004400083641000000770000004136080004
:1003400002010204023C2623263C1EA1A161123AAE
:100350004040207A385454555921555579412154FB
:10036000547841215554784020545579400C1E5200
:1003700072123955555559395454545939555454A4
:10038000580000457C410002457D420001457C400B
:10039000F0292429F0F0282528F07C545545002028
:1003A00054547C547C0A097F4932494949323248C5
:1003B000484832324A4848303A4141217A3A42402C
:1003C0002078009DA0A07D39444444393D40404000
:1003D0003D3C24FF2424487E4943662B2FFC2F2BD1
:1003E000FF0929F620C0887E090320545479410072
:1003F00000447D413048484A32384040227A007AF1
:100400000A0A727D0D19317D2629292F28262929CE
:10041000292630484D4020380808080808080808F0
:10042000382F10C8ACBA2F102834FA00007B000017
:1004300008142A142222142A14089500220095AACE
:10044000005500AAAA55AA55AA000000FF001010E6
:1004500010FF00141414FF001010FF00FF1010F024
:1004600010F0141414FC001414F700FF0000FF0037
:10047000FF1414F404FC141417101F10101F101F85
:100480001414141F00101010F0000000001F1010B2
:1004900010101F10101010F010000000FF101010AE
:1004A000101010101010FF10000000FF140000FFCB
:1004B00000FF00001F10170000FC04F414141710B4
:1004C000171414F404F40000FF00F71414141414A7
:1004D0001414F700F7141414171410101F101F141D
:1004E0001414F4141010F010F000001F101F00007E
:1004F000001F14000000FC140000F010F01010FFAA
:1005000010FF141414FF141010101F00000000F04E
:1005100010FFFFFFFFFFF0F0F0F0F0FFFFFF000023
:10052000000000FFFF0F0F0F0F0F38444438447CCA
:100530002A2A3E147E02020606027E027E026355CD
:100540004941633844443C04407E201E2006027E1C
:10055000020299A5E7A5991C2A492A1C4C7201722E
:100560004C304A4D4D303048784830BC625A463D98
:100570003E494949007E0101017E2A2A2A2A2A444D
:10058000445F444440514A444040444A5140000082
:10059000FF0103E080FF000008086B6B083612368D
:1005A0002436060F090F060000181800000010106E
:1005B000003040FF0101001F01011E00191D17122C
:1005C000003C3C3C3C0000000000F0F89C8E87831F
:1005D000878E9CF8F00000FEFF0303030303070E61
:1005E000FCF80000FEFF0303030303070EFCF80002
:1005F00000FFFF00000000000000FFFF0000FEFF02
:100600008383838383C7EE7C380000F8FC0E0703E6
:100610000303070EFCF800003F7FE0C08080C0E0CD
:100620007F3FFFFF01010101010101FFFF0000FF0A
:10063000FF0C0C0C0C1C3E77E3C100007FFFC0C018
:10064000C0C0C0E0703F1F00001F3F70E0C0C0C0CE
:10065000E0703F1F00007FFFC1C1C1C1C1E3773E11
:100660001C00001F3F70E0C0C0C0E0703F1F0000D2
:1006700000000001FFFF01000000D5F08D14A1C8AB
:1006800081CFD9F1AF2000080B000202020000095F
:1006900004000001020200000524001001052401ED
:1006A0000101042402060524060001070581031048
:1006B000004009040100020A000000070502024090
:1006C0000000070583024000000403090412010032
:1006D00002EF020140412336800001010203014183
:1006E000726475696E6F204C4C430041424C31334B
:1006F00030360000A50B11241FBECFEFDAE0DEBFBD
:10070000CDBF11E0A0E0B1E0EEE3FCE202C0059055
:100710000D92A235B107D9F726E0A2E5B1E001C0FC
:100720001D92AB37B207E1F713E0CBE7D3E004C08B
:100730002197FE010E941716CA37D107C9F70E94F8
:10074000D60B0C941D160C940000E4E1F2E0A0E03E
:10075000B8E000800EBC8111012C1197A0FDFDCFE7
:100760000192B9F70DB408959C01480F592F511DFE
:100770004115510549F14138510514F040E850E068
:10078000421BCB018770992791E001C0990F8A9590
:10079000EAF777FF02C0695F7F4FFB0183E0F595C1
:1007A000E7958A95E1F7F695FE2FEE27F795E79501
:1007B000E20FF31FEC5EFD4F415030F08191DF01FD
:1007C0001197892B8C93F8CF0895FC018091130227
:1007D000882311F13FB7F89482E08093E9002091DB
:1007E000F200822F90E01816190614F481E090E0D0
:1007F000882339F0289844E6409312024091F10092
:100800004083222339F02091F200211103C02BE60E
:100810002093E8003FBF08958FEF9FEF08952FB713
:10082000F89483E08093E9009091E800892F80722A
:1008300095FF04C09091F20080E4891B2FBF0895BA
:1008400080910A0281110DC082E08093060284E04B
:1008500080930702109209021092080281E08093AF
:100860000A0286E092E00895CF93DF931F92CDB7FE
:10087000DEB76983DC01ED91FC910280F381E02D0C
:1008800041E050E0BE016F5F7F4F09950F90DF910F
:10089000CF91089583E08093E9008091F20088234E
:1008A00019F08AE38093E80008950E940F0490E015
:1008B0000895CF93DF931F92CDB7DEB7FC018485F7
:1008C000958597FD08C02FEF3FEF358724870F9060
:1008D000DF91CF910895CE0101960E94E503019723
:1008E00019F4898190E0F3CF8FEF9FEFF0CF0F9352
:1008F0001F93CF93DF931F92CDB7DEB78C01FC011E
:100900008485958597FF0BC0CE0101960E94E50373
:10091000019771F4898190E0F80195878487F80147
:10092000848595850F90DF91CF911F910F91089548
:100930008FEF9FEFF1CFFC018485958597FD0BC06C
:100940009FB7F89482E08093E9008091F2009FBF06
:1009500090E0019608959FB7F89482E08093E900B3
:100960008091F2009FBF90E0089540910002509165
:1009700001022091FE013091FF0142175307B4F4A8
:100980009091E8009570E1F39091E80092FD19C014
:100990008093F100809100029091010201968F7383
:1009A0009927892B19F48EEF8093E800809100023B
:1009B000909101020196909301028093000281E0E0
:1009C000089580E00895DF92EF92FF920F931F93B6
:1009D000CF93DF93D82E8A01EB017B01E40EF51E45
:1009E000CE15DF0559F0D7FE12C0FE0184910E949A
:1009F000B50421968111F4CF0FEF1FEFC801DF91ED
:100A0000CF911F910F91FF90EF90DF900895888113
:100A1000EECF0F931F93CF93DF931F92CDB7DEB727
:100A200082E0898342E450E067E876E080E80E9453
:100A3000E3040E942004DC0112960D911C91011523
:100A4000110589F0D801ED91FC910280F381E02D30
:100A5000BE016F5F7F4FC801099597FD04C0F80183
:100A600000851185ECCF89810F90DF91CF911F9187
:100A70000F910895615030F02091F100FC01208326
:100A80000196F8CF289884E680931202089508957D
:100A9000AF92BF92CF92DF92EF92FF920F931F938C
:100AA000CF93DF936C017B018B01040F151FEB01CA
:100AB0005E01AE18BF08C017D10759F06991D60181
:100AC000ED91FC910190F081E02DC6010995892BF3
:100AD00079F7C501DF91CF911F910F91FF90EF90B2
:100AE000DF90CF90BF90AF900895FC010E940C065C
:100AF000319728F068517C4F8F4F9F4FF9CFAB0152
:100B0000FC010E940C06641775078E079F07C8F347
:100B100008958F929F92AF92BF92CF92DF92EF9201
:100B2000FF920F931F93CF93DF936C017B018A0198
:100B300080910D01882309F45AC080911302882303
:100B400009F455C08091050280FF05C08091E00046
:100B500082608093E000E801B12C8AEFA82E93E038
:100B6000892E2AE3922E209711F4BB20C9F10E940E
:100B70000F04811108C0AA94AA20C9F181E090E075
:100B80000E947505F0CF8C171D0611F00CF08C2F0C
:100B90009FB7F8948092E9002091E80025FD02C0FB
:100BA0009FBFE1CF282F30E0C21BD30BF70181504C
:100BB00020F041914093F100FACFE20EF31EBB20EA
:100BC00021F09092E800B12CEBCF8091E80085FDF8
:100BD000E7CF9092E800BB24B394209709F3F3CFBA
:100BE0005D9884E680930402101611063CF081E0C3
:100BF00090E0F6019383828310E000E0C801DF916A
:100C0000CF911F910F91FF90EF90DF90CF90BF9009
:100C1000AF909F908F900895AAE5B1E02FB7F89418
:100C20007D918D919C9166B52FBFA89B05C06F3FAC
:100C300018F47F5F8F4F9F4F22E0660F771F881F4A
:100C4000991F2A95D1F708952D9A089590E00C9454
:100C500075058FB18095807F669B88601C9B846042
:100C6000089580389105B8F460347105A0F490E1DE
:100C700021E061FD24E060FD220F62FD2295687F86
:100C8000969FD0011124A80FAC5EBD4F0C90022A94
:100C900040FF02260C9208952F923F924F925F924E
:100CA0006F927F928F929F92AF92BF92CF92DF927C
:100CB000EF92FF920F931F93CF93DF9300D01F9279
:100CC000CDB7DEB79B838A837B016A0109838901E3
:100CD000061B170B17FF03C011950195110946015B
:100CE0008A819B81881A990A97FE03C09194819406
:100CF0009108801691065CF49C2D8D2D6901292F99
:100D0000382F9A818B81FB82EA82E92EF82E8A8124
:100D10009B81C816D9065CF49E2D8F2D7901292F51
:100D2000382F9A818B81DB82CA82C92ED82E160178
:100D30008A819B81281A390A29014E185F0857FEBB
:100D400003C0519441945108310137FE03C09FEF15
:100D5000691A790A759467948FEFE216F3060CF41A
:100D600081E0A82E880FBB088A819B81C816D9060E
:100D7000CCF04981BC01C701801691061CF0B70177
:100D80008A819B810E9431066418750877FE04C031
:100D9000EA0CFB1C620C731C8A819B8101969B836D
:100DA0008A83E2CF0F900F900F90DF91CF911F9128
:100DB0000F91FF90EF90DF90CF90BF90AF909F90FA
:100DC0008F907F906F905F904F903F902F900895FD
:100DD000EF92FF920F931F93CF93DF937C018B01D0
:100DE000040F111DEB0177FF02C0D0E0C0E0C80185
:100DF0000134110514F080E490E0C817D9073CF4E1
:100E000041E0BE01C7010E9431062196F0CFDF917B
:100E1000CF911F910F91FF90EF900895EF92FF9265
:100E20000F931F93CF93DF937C018B01C42FD22F9D
:100E30000E94B403B8016D0F711D615071096034D7
:100E4000710520F44C2FC7010E94B4034D2FB80147
:100E5000C7010E94E806C7018C0F911D4D2FB801F4
:100E60000197DF91CF911F910F91FF90EF900C941C
:100E7000E8062F923F924F925F926F927F928F92ED
:100E80009F92AF92BF92CF92DF92EF92FF920F9319
:100E90001F93CF93DF93CDB7DEB72A970FB6F894A1
:100EA000DEBF0FBECDBF9A8389836A3061F5DC0156
:100EB00055968C91B8E08B9F90011124E981FA81BD
:100EC00081899289820F931F928B818B108A17865A
:100ED00081E090E02A960FB6F894DEBF0FBECDBF3A
:100EE000DF91CF911F910F91FF90EF90DF90CF9006
:100EF000BF90AF909F908F907F906F905F904F903A
:100F00003F902F9008956D3019F329813A813A87E7
:100F10002987D9011F96AD90BC90B0E8AB16B104FB
:100F20000CF07BC0F901C188D288F0E4CF16D1045F
:100F30000CF073C0D90155966C90559745E095011A
:100F4000649E200D311D1124121613060CF065C08D
:100F5000262C312C910153E0220F331F5A95E1F7D3
:100F60002C0D3D1D121613060CF057C05496BC9163
:100F7000BB83E985FA85F389FC83649FB001112462
:100F80009B0126533F4F3A832983712CE981FA81D3
:100F90008491F5E07F1201C080E0460138E0532ED5
:100FA000282F30E03E832D834C8080FF4B80411002
:100FB00004C03B818C813817E1F010E000E0061599
:100FC000C0F4D501A00FB11FB887AF83F12CE12C7D
:100FD000E61460F4B701680D791D442D8F81988562
:100FE0000E943106BFEFEB1AFB0AF2CF0F5F1F4FD3
:100FF000E6CF8D819E81959587955A94820C931C9E
:101000005110CECF7394E981FA813196FA83E98346
:10101000A20CB31CF6E07F12B9CFA985BA8555960C
:101020002C915597422F50E01F968D919C91B6E0E0
:101030002B9F800D911D1124E985FA85908B878760
:101040002689222309F444CF6AEF64039001659F47
:10105000300D112420583F4F281739070CF038CF96
:10106000DF010190F081E02D0190F081E02D6AE038
:10107000CD0109952DCF0895089590E080E0089561
:101080000C942E131F920F920FB60F9211248F9370
:101090009F938091E1009091E100937F9093E10014
:1010A00083FF0FC01092E90091E09093EB00109243
:1010B000EC0092E39093ED001092130298E090936D
:1010C000F00082FF22C093E09093E9009091F2003B
:1010D000992319F09AE39093E800909104029923E0
:1010E00041F090910402915090930402911101C03B
:1010F0005D9A90911202992341F0909112029150C1
:1011000090931202911101C0289A84FF18C0809117
:10111000E2008E7E81608093E2008091E1008F7E0C
:101120008093E100809105028E7E806180930502AC
:101130009F918F910F900FBE0F901F90189580FF79
:10114000F7CF8091E2008E7E80618093E2008091F3
:10115000E1008E7E8093E100809105028E7E8160A9
:10116000E5CF1F920F920FB60F921124CF92DF920C
:10117000EF92FF920F931F932F933F934F935F93A1
:101180006F937F938F939F93AF93BF93EF93FF934F
:10119000CF93DF93CDB7DEB76C97DEBFCDBF109294
:1011A000E9008091E80083FF25C068E0CE01459604
:1011B0000E943A0582EF8093E8008D8987FF39C04D
:1011C0009091E80090FFFCCF982F907609F034C101
:1011D0009E894F89588D2F89F88C911131C08038A4
:1011E00061F5809103028093F1001092F1008EEF7F
:1011F0008093E8006C960FB6F894DEBF0FBECDBFAB
:10120000DF91CF91FF91EF91BF91AF919F918F911E
:101210007F916F915F914F913F912F911F910F910E
:10122000FF90EF90DF90CF900F900FBE0F901F9028
:1012300018959EEF9093E800C7CF1092F100D5CF9C
:10124000913059F48111D3CF4130510581F680910D
:1012500003028D7F80930302CACF933049F481113A
:10126000C6CF4130510519F6809103028260F2CF5A
:10127000953041F48091E80080FFFCCF20682093F6
:10128000E300B5CF963009F0A9C00B8D1C8D22E08C
:101290001092E9001092010210920002F2122EC088
:1012A0001092FF011092FE010E9409051F8299E031
:1012B0009983FA8291E09E8390EA98879AEF9987C2
:1012C0002091000230910102275F3F4F3C832B8326
:1012D0008D831092E9001092010210920002109387
:1012E000FF010093FE0149E050E0BE016F5F7F4FB8
:1012F00080E00E94E3040E94090579CF1093FF016A
:101300000093FE010E942004DC0112960D911C91B5
:101310000115110509F451C1D801ED91FC9104802A
:10132000F581E02DBE016B5E7F4FC80109950097E6
:1013300009F03EC1F80100851185EACFF3E0FF1204
:101340000EC08F89882309F440C0823061F440E8E0
:1013500067E08BEE96E00E942D0B811148CF81E271
:101360008093EB0047CF813029F440E86BE08FEDAC
:1013700096E0F1CF833099F70E942004DC011296A9
:10138000ED90FC908E010F5F1F4F6801E114F10496
:1013900079F0D701ED91FC910680F781E02DB8013D
:1013A000C7010995080F111DF701E084F184EECF04
:1013B000D8011C92F60101900020E9F73197BF0196
:1013C0006C197D0940E0C601C6CF69EC76E0FB01EF
:1013D000449150E080E80E94E30409CF973009F47B
:1013E000BECF983021F481E08093F10000CF993096
:1013F00009F0FDCE837009F0B2CFE5E2F1E081E0C3
:1014000031E096E32191222371F08093E90030933B
:10141000EB00DF0111972C912093EC009093ED00ED
:101420008F5F873079F78EE78093EA001092EA00A9
:101430008F8980931302DBCE8B8D9C8D1092E900F7
:1014400010920102109200029093FF018093FE011E
:10145000898D811192C08E899D89913A49F481329A
:1014600009F07DCF47E050E066E071E080E0B3CF67
:10147000913209F074CF833269F48F89988DB0E08E
:10148000A0E08093020190930301A0930401B09324
:101490000501ADCE803269F48091E80082FFFCCF77
:1014A00067E086E091E00E943A058BEF8093E800C8
:1014B0009ECE823209F09BCE8F8980930D01EEEF94
:1014C000FFE7859194918B3F9C4D51F1E0E0F8E06E
:1014D0008091060190910701A0910801B091090146
:1014E000803B9440A105B105F1F480910D0180FD90
:1014F0001AC0EE3F8AE0F80789F587E797E79183FE
:101500008083809160008093020288E19BE00FB6A7
:10151000F894A895809360000FBE9093600067CE0A
:10152000EEEFFAE0D5CF808191818737974709F0B8
:101530005ECEA89580916000886180936000809164
:10154000020280936000EE3F2AE0F20789F080916A
:10155000FE0A9091FF0A9183808349CE8081918118
:101560008737980751F29093FF0A8093FE0AC5CF00
:101570001092FF0A1092FE0A3ACE0E942004DC016B
:1015800012960D911C910115110509F4E8CED801B0
:10159000ED91FC910190F081E02DBE016B5E7F4FDB
:1015A000C8010995811123CEF80100851185EBCF83
:1015B000181619060CF41BCED2CEF1E0FF12BECEE7
:1015C0006DEC76E004CF0F920FB68F939F93EF935D
:1015D000FF93809159018D5F8D3708F08D5780936F
:1015E0005901EEE5F1E080818E4F808391819F4F1C
:1015F000918382818F4F828383818F4F8383EAE53A
:10160000F1E080818F5F808381818F4F8183828130
:101610008F4F828383818F4F83838FB18F606699D1
:101620001C9B88278F3681F480915801981B963037
:1016300068F0E0E0F8E087E78083818388E18093C9
:101640006000F0936000FFCF90935801FF91EF91FD
:101650009F918F910FBE0F901895EF92FF920F936D
:101660001F93CF93DF93F82E192FE62E042F81E0DE
:10167000860F880F0E94B50483E00E94B504CF2D29
:10168000D12FEC0EFD2EF11CCE15DF05B9F007FFB2
:1016900013C0FE0184910E94B504182F80E00E94BF
:1016A000B504812321968111EFCFDF91CF911F9156
:1016B0000F91FF90EF9008958881EDCF81E0F5CFF5
:1016C0000F931F93CF93DF938C0181E090E00E94F2
:1016D000400880FF32C08AE090E00E9440089FEFFF
:1016E000980F9E3F50F522E330E0D80150963C938E
:1016F0002E931F9728E330E052963C932E935197F8
:10170000CBE0D0E0D801ED91FC910190F081E02D8B
:10171000682FC8010995CE010E9440082196C13169
:10172000D10581F780E00E94A50388EE93E0DF9168
:10173000CF911F910F910C947505DF91CF911F915F
:101740000F91089504970C94600BE4E1F6E0138286
:10175000128288EE93E0A0E0B0E084839583A683B4
:10176000B7838FE291E0918380838FEF9FEF95871E
:101770008487E4E6F6E0138212821186128680E105
:10178000838710861782158681E491E09183808398
:101790008FE491E095838483108A1786128A118AD8
:1017A00081E0838B148A858B168A0895CDB7DEB7C6
:1017B0006797DEBFCDBF789483E084BD83E085BDAD
:1017C00081E080936E00E1E8F0E083E08083E0E870
:1017D00081E08083E1E983E08083E0E981E0808348
:1017E000E1EC87E08083E3EC81E08083E0EC82E061
:1017F0008083E2EC81E08083EAE787E08083806891
:1018000080831092130210920302109205028091BD
:10181000D70081608093D70080EA8093D80089B593
:10182000806189BD89B5826089BD09B400FEFDCFA4
:1018300081E090E00E9475058091D8008F7C8061E6
:101840008093D8008091E000807F8093E0008091B9
:10185000E1008E7E8093E1008DE08093E200559A56
:10186000209A81EC80937C0081EF85B987EE84B962
:1018700084E38BB984EF8AB9769A6E9880EF81BB46
:1018800010BA80E58CBD81E08DBD85E00E94260602
:101890005F9A85E00E9426065C98EAE7F6E085916B
:1018A0008EBD00000DB407FEFDCFE738C1F75C9A8E
:1018B00081E88093640081E0809365000E94A50325
:1018C0000E94290687FF15C05C9885EA8EBD00003E
:1018D0000DB407FEFDCF5C9A2E982F982D9880911D
:1018E000640080628093640081E083BF889513BEAA
:1018F000FCCF0E94290682FF45C02D980E94290630
:1019000084788438D9F40E94240688EC0E94260644
:101910002F9882E090E00E942E138F3F29F06FEF06
:1019200082E090E00E94361384EF91E00E947505FA
:101930002F9A0E94290684788438D9F30E942906B8
:1019400084718431D9F40E94240688EC0E94260612
:101950002E9882E090E00E942E13882329F060E008
:1019600082E090E00E94361384EF91E00E947505BA
:101970002E9A0E94290684718431D9F388EC0E9442
:101980002606B7CF0E94240682E090E00E9440081D
:10199000882309F4B8C03E9A3F9A81E090E00E9403
:1019A0004008282F2470922E81FF0CC021112E9800
:1019B00001EF1FEF0E94290686FFA8C02E9A2F9ADA
:1019C0000E94240682E30E9426060E9429068111B5
:1019D000F9CF81E280936F0686E1EEE0F1E0A2E6C6
:1019E000B1E001900D928A95E1F710928A01109270
:1019F0008B0110928C0110928D0183E490E0909302
:101A000079018093780184E090E090937B0180934A
:101A10007A0127E730E030937D0120937C01909399
:101A20007F0180937E0187E490E090938101809311
:101A3000800188E090E0909383018093820123E706
:101A400030E0309385012093840190938701809347
:101A5000860181E090E09093890180938801109243
:101A6000E7011092E6011092E9011092E80180E08E
:101A700090E0A0E0B0E48093EA019093EB01A093A2
:101A8000EC01B093ED0180E090E0A4E7B2E4809334
:101A9000EE019093EF01A093F001B093F10180E08B
:101AA00090E0A0E0B2E48093F2019093F301A09360
:101AB000F401B093F5011092F6011092F701109223
:101AC000F8011092F9011092FA011092FB011092A4
:101AD000FC011092FD0190915E0180917006F92F3A
:101AE000F81B8F2F209171062D87222309F47FC0C8
:101AF000F09372061092710680E090E0892B59F302
:101B00000E940000E8CF3E983F9847CF992029F0E7
:101B10000430110511F42E9A2F9881E00E94A5033C
:101B2000302F3770B32EA80133E0559547953A957D
:101B3000E1F79A013695322F2227379527952C5EAB
:101B40003D4F70E060E04E3F8FEF580761F190E04D
:101B500080E0DB01A653BA4F7901E0E8EE0EF11CFC
:101B6000FD01E80FF91FE491F0E03F010B2C02C0EA
:101B7000660C771C0A94E2F74F3F540739F069016D
:101B8000C80ED91EF601A488A628A48ABB2039F065
:101B90006701C80ED91EF601A488A728A48A019659
:101BA00088359105E9F64F5F5F4F20583F4F685ADF
:101BB0007F4F603B710539F680E00E94A5038FE0FE
:101BC0000E9426060F5F1F4F0931110509F0F2CE62
:101BD000992011F02F9A2D9880E991E00E947505C7
:101BE0000E94240684E696E00E94600BEBCE2091D2
:101BF0006F06F21748F48F5F821708F07DCF31E04F
:101C000033BF889513BE78CF41E04093710690931F
:101C10007006EBE6F6E080819181019680839183E6
:101C20009D85E4E1F2E091119FEF8FEF9193919305
:101C3000919391938150D0F7109276061092750689
:101C4000109274061092730680916D0680936E0652
:101C50000E942906898380936D0620E030E0A90167
:101C60006091F6017091F7018091F8019091F9016E
:101C70000E94B113811176C420E030E0A901609187
:101C8000FA017091FB018091FC019091FD010E948D
:101C9000B1138111A6C4009100011091010180913E
:101CA0006E0683FD3AC0598153FF37C0B801012E3B
:101CB000000C880B990B0E9465142BED3FE049EC5A
:101CC00050E40E94591520E030E044EB53E40E94B8
:101CD000BB136B017C010E94C61520E030E040EA96
:101CE00050E40E9459156093F6017093F7018093B8
:101CF000F8019093F901C701B6010E94B61320E0E4
:101D000030E040EA50E40E9459156093FA01709364
:101D1000FB018093FC019093FD010E94290685FF41
:101D200006C00B5F1F4F10930101009300010E943A
:101D3000290686FF09C08091000190910101059755
:101D40009093010180930001809100019091010125
:101D50008836A1E09A070CF465C210920101109236
:101D600000014090F6015090F7016090F8017090EA
:101D7000F9012091EE013091EF014091F001509175
:101D8000F101C301B2010E9445134B015C01809235
:101D9000EE019092EF01A092F001B092F101C0909B
:101DA000FA01D090FB01E090FC01F090FD01209140
:101DB000F2013091F3014091F4015091F501C70116
:101DC000B6010E94451369837A838B839C83609359
:101DD000F2017093F3018093F4019093F50120E0F8
:101DE00030E0A901C301B2010E94B1138823A1F020
:101DF0002DEC3CEC4CEC5DE3C301B2019F770E94FB
:101E0000B11318160CF417C21092F6011092F701D4
:101E10001092F8011092F90120E030E0A901C70109
:101E2000B6010E94B1138823A1F02DEC3CEC4CECE0
:101E30005DE3C701B6019F770E94B11318160CF439
:101E40000BC21092FA011092FB011092FC01109249
:101E5000FD014090EA015090EB016090EC01709020
:101E6000ED01A301920169817A818B819C810E949D
:101E7000451320E030E048E652E40E94541518165D
:101E80000CF5A301920160E070E088E692E40E9404
:101E900044136093F2017093F3018093F4019093E3
:101EA000F5018091FA019091FB01A091FC01B091A4
:101EB000FD01B0588093FA019093FB01A093FC01BF
:101EC000B093FD01C090F601D090F701E090F801C9
:101ED000F090F901A3019201C501B4010E944413DD
:101EE00020E030E040EC50E40E94B11387FFC5C110
:101EF00020E030E040EC50E4C301B2010E94451301
:101F00006093EE017093EF018093F0019093F101E3
:101F1000F7FAF094F7F8F094C092F601D092F70136
:101F2000E092F801F092F9018091720190917301B1
:101F30002091EE013091EF014091F0015091F101BB
:101F400029833A834B835C832091F2013091F30122
:101F50004091F4015091F5012E873F87488B598BB2
:101F60008130910509F030C223EF34E045E35FE3AF
:101F7000C301B2010E9459156D837E838F839887B8
:101F80009B01AC0169817A818B819C810E94451300
:101F90004B015C012D813E814F8158856E857F8587
:101FA000888999890E9444136B017C0160916A01C0
:101FB00070916B01072E000C880B990B0E94651421
:101FC0006A8B7B8B8C8B9D8B60916201709163011E
:101FD000072E000C880B990B0E9465149B01AC0125
:101FE000C501B4010E94541518160CF05EC12A896F
:101FF0003B894C895D89C501B4010E94B11387FFFB
:1020000054C16091640170916501072E000C880B2A
:10201000990B0E9465149B01AC01C701B6010E9497
:10202000541518160CF041C160917401709175013E
:10203000072E000C880B990B0E946514A5019401D2
:102040000E9445139B01AC01C701B6010E94B11368
:1020500087FF24C08091F6019091F701A091F801CB
:10206000B091F9014091FA015091FB016091FC019E
:102070007091FD0170584093F6015093F701609301
:10208000F8017093F901B0588093FA019093FB0125
:10209000A093FC01B093FD01B1E0BD8724E344E7C8
:1020A00066E070E086E090E00E940E0700E026E027
:1020B00030E04AE750E066E070E086E090E00E94A1
:1020C0004C0620E441E070E060E090E080E00E9497
:1020D0000E076E857F85888999890E942D144B0192
:1020E0001B0169817A818B819C810E942D146B0177
:1020F0007E836D83C301B2010E943414662E712C5D
:1021000044244394512C46185708002711270619D8
:102110001709000F111FB301680D791D41E0C601B9
:102120000E943106B4016619770941E0C6010E9498
:102130003106C3018C0D9D1D41E0B4010E943106A2
:10214000C6018619970941E0B4010E943106B12CFD
:10215000A12C88248394912CA614B7040CF03CC1C4
:1021600057FC07C0E1E06E1A71080E5F1F4F400E6A
:10217000511EFFEFAF1ABF0A22E0820E911C480CDD
:10218000591CCD80DE80CA0CDB1C41E0C101860DEC
:10219000971D9A878987BC01C6010E943106ED8090
:1021A000FE80EA18FB0841E069857A85C7010E9434
:1021B000310641E0D101A619B709BA87A987BD0147
:1021C000C6010E94310641E069857A85C7010E94F7
:1021D0003106F101EA0DFB1DFA87E98741E0BF01F5
:1021E000ED80FE80E60CF71CC7010E94310641E03D
:1021F00069857A852D813E81261937093A87298795
:10220000C9010E9431066101CA18DB0841E0B6012C
:10221000C7010E94310641E0B60189859A850E9476
:1022200031069ACF97FF9DCDE7E6F1E0F0930101EB
:10223000E093000196CD26E636E646E65FE3C3016D
:10224000B2010E9459156093F6017093F7018093D3
:10225000F8019093F901E0CD26E636E646E65FE325
:10226000C701B6010E9459156093FA017093FB01F2
:102270008093FC019093FD01ECCDA3019201C50177
:10228000B4010E94451320E030E044EF52E40E9484
:10229000541518160CF048CEA301920160E070E0CE
:1022A00084EF92E40E9444132BCE40916C01509134
:1022B0006D015F8B4E8B60916E0170916F01072EE7
:1022C000000C880B990B0E94651469877A878B87AD
:1022D0009C872A893B894C895D8969817A818B81B8
:1022E0009C810E94541587FD26C029853A854B851F
:1022F0005C8569817A818B819C810E94B11318165B
:10230000D4F0A30192016E857F85888999890E9406
:1023100044134B015C01AE89BF89BD01BB0F880B23
:10232000990B0E9465149B01AC01C501B4010E9488
:10233000B11387FD8FCE2D813E814F8158856981F4
:102340007A818B819C810E9444134B015C01298519
:102350003A854B855C850E94541518160CF09ECE6C
:102360006091660170916701072E000C880B990B34
:102370000E9465149B01AC01C501B4010E94B11318
:1023800087FF8CCE6091680170916901072E000C67
:10239000880B990B0E9465149B01AC01C701B60123
:1023A0000E94541518160CF079CE60917601709148
:1023B0007701072E000C880B990B0E946514A5016C
:1023C00094010E9444133ECE0297039708F466CE10
:1023D000311040CE1D8662CE20E030E0A901609130
:1023E000F6017091F7018091F8019091F9010E9436
:1023F000B113811172C020E030E0A9016091FA01AF
:102400007091FB018091FC019091FD010E94B1133C
:10241000811163C06091000170910101072E000CD1
:10242000880B990B0E9465142BED3FE049EC50E4BA
:102430000E94591520E030E044EB53E40E94BB13A6
:102440006B017C010E94B61320E030E040EC50E4C8
:102450000E9459159B01AC016E857F8588899989F9
:102460000E9444130E942D144B01C701B6010E9423
:10247000C61520E030E040EC50E40E9459159B0165
:10248000AC0169817A818B819C810E9444130E94F6
:102490002D146B01A401415051095A83498343E033
:1024A00069817A81C6010E94E806C601019641E071
:1024B000B4010E94E80643E069817A81C6010E9466
:1024C000E806C601019741E0B4010E94E80643E036
:1024D00069817A81C6010E94E80682E691E09E83C6
:1024E0008D83AD81BE810D90BC91A02DBA83A9834F
:1024F000ED81FE81228033808480958066807780A4
:1025000040845184E284F384C484D584A684B7844F
:1025100001E09301A401B101CD010E944C06950197
:10252000A601B301C4010E944C069501A601B701A2
:10253000C2010E944C06910149815A81B701C20132
:102540000E944C062D813E812A5E3F4F3E832D83A3
:1025500046EE51E04217530721F680E00E94A503A2
:102560003D84CACA4090F6015090F7016090F8018E
:102570007090F9012091EE013091EF014091F0014E
:102580005091F101C301B2010E9445134B015C015E
:102590008092EE019092EF01A092F001B092F101D1
:1025A000C090FA01D090FB01E090FC01F090FD0199
:1025B0002091F2013091F3014091F4015091F50125
:1025C000C701B6010E94451369837A838B839C837C
:1025D0006093F2017093F3018093F4019093F501FD
:1025E00007CC2091EE013091EF014091F001509124
:1025F000F1016091F6017091F7018091F8019091DD
:10260000F9010E9445134B015C018092EE0190920A
:10261000EF01A092F001B092F101C090FA01D090C8
:10262000FB01E090FC01F090FD012091F20130915E
:10263000F3014091F4015091F501C701B6010E94E8
:10264000451369837A838B839C836093F201709333
:10265000F3018093F4019093F501DECBF999FECF5D
:1026600092BD81BDF89A992780B50895262FF999D2
:10267000FECF1FBA92BD81BD20BD0FB6F894FA9A65
:10268000F99A0FBE019608955058BB27AA270E94B9
:102690005C130C9406150E94CD1438F00E94D414DB
:1026A00020F039F49F3F19F426F40C94CA140EF468
:1026B000E095E7FB0C94C414E92F0E942B1558F306
:1026C000BA17620773078407950720F079F4A6F517
:1026D0000C944D150EF4E0950B2EBA2FA02D0B0186
:1026E000B90190010C01CA01A0011124FF27591B57
:1026F00099F0593F50F4503E68F11A16F040A22F5D
:10270000232F342F4427585FF3CF469537952795CD
:10271000A795F0405395C9F77EF41F16BA0B620BCC
:10272000730B840BBAF09150A1F0FF0FBB1F661F13
:10273000771F881FC2F70EC0BA0F621F731F841F56
:1027400048F4879577956795B795F7959E3F08F07C
:10275000B0CF9395880F08F09927EE0F979587953E
:1027600008950E94A01408F481E008950E94DD14E9
:10277000E3950C9417150E94CF130C9406150E9434
:10278000D41458F00E94CD1440F029F45F3F29F092
:102790000C94C41451110C944E150C94CA140E943C
:1027A0002B1568F39923B1F3552391F3951B550B22
:1027B000BB27AA2762177307840738F09F5F5F4F14
:1027C000220F331F441FAA1FA9F335D00E2E3AF053
:1027D000E0E832D091505040E695001CCAF72BD06B
:1027E000FE2F29D0660F771F881FBB1F26173707BC
:1027F0004807AB07B0E809F0BB0B802DBF01FF27EE
:1028000093585F4F3AF09E3F510578F00C94C414F2
:102810000C944E155F3FE4F3983ED4F3869577957C
:102820006795B795F7959F5FC9F7880F911D9695A6
:10283000879597F90895E1E0660F771F881FBB1F02
:10284000621773078407BA0720F0621B730B840BAF
:10285000BA0BEE1F88F7E09508950E94341468942F
:10286000B1110C944E1508950E94331588F09F57AE
:1028700098F0B92F9927B751B0F0E1F0660F771FA4
:10288000881F991F1AF0BA95C9F714C0B13091F09A
:102890000E944D15B1E008950C944D15672F782FC7
:1028A0008827B85F39F0B93FCCF38695779567955F
:1028B000B395D9F73EF490958095709561957F4FCB
:1028C0008F4F9F4F0895E89409C097FB3EF4909571
:1028D0008095709561957F4F8F4F9F4F9923A9F0F9
:1028E000F92F96E9BB279395F69587957795679588
:1028F000B795F111F8CFFAF4BB0F11F460FF1BC0CC
:102900006F5F7F4F8F4F9F4F16C0882311F096E95E
:1029100011C0772321F09EE8872F762F05C066230C
:1029200071F096E8862F70E060E02AF09A95660FC5
:10293000771F881FDAF7880F9695879597F908957E
:10294000990F0008550FAA0BE0E8FEEF16161706C0
:10295000E807F907C0F012161306E407F50798F028
:10296000621B730B840B950B39F40A2661F0232B41
:10297000242B252B21F408950A2609F4A140A695BD
:102980008FEF811D811D089597F99F6780E870E0A2
:1029900060E008959FEF80EC089500240A941616D5
:1029A000170618060906089500240A94121613063D
:1029B0001406050608950C94CA140E943315D8F322
:1029C000E894E0E0BB279F57F0F02AED3FE049ECA8
:1029D00006C0EE0FBB0F661F771F881F28F0B23AA4
:1029E00062077307840728F0B25A620B730B840BDB
:1029F000E3959A9572F7803830F49A95BB0F661F6D
:102A0000771F881FD2F790480C94D015092E039495
:102A1000000C11F4882352F0BB0F40F4BF2B11F4CB
:102A200060FF04C06F5F7F4F8F4F9F4F0895EF93FC
:102A3000E0FF07C0A2EA2AED3FE049EC5FEB0E940D
:102A40005C130E9406150F90039401FC9058ECEA69
:102A5000F0E00C94DC1557FD9058440F551F59F0C9
:102A60005F3F71F04795880F97FB991F61F09F3F7B
:102A700079F087950895121613061406551FF2CFA4
:102A80004695F1DF08C0161617061806991FF1CFF4
:102A900086957105610508940895E894BB2766271B
:102AA0007727CB0197F908950E94A01408F48FEFBF
:102AB00008950E946C150C9406150E94CD1438F0F0
:102AC0000E94D41420F0952311F00C94C4140C949B
:102AD000CA1411240C944E150E942B1570F3959F67
:102AE000C1F3950F50E0551F629FF001729FBB2705
:102AF000F00DB11D639FAA27F00DB11DAA1F649FA1
:102B00006627B00DA11D661F829F2227B00DA11D53
:102B1000621F739FB00DA11D621F839FA00D611DD9
:102B2000221F749F3327A00D611D231F849F600DFA
:102B3000211D822F762F6A2F11249F5750409AF023
:102B4000F1F088234AF0EE0FFF1FBB1F661F771FAF
:102B5000881F91505040A9F79E3F510580F00C947A
:102B6000C4140C944E155F3FE4F3983ED4F386955D
:102B700077956795B795F795E7959F5FC1F7FE2B1A
:102B8000880F911D9695879597F908959F930E94B8
:102B9000DD140F9007FCEE5F0C9417159F3F31F08A
:102BA000915020F4879577956795B795880F911D7B
:102BB0009695879597F908959F938F937F936F9339
:102BC000FF93EF939B01AC010E945915EF91FF9188
:102BD0000E94F0152F913F914F915F910C945915E0
:102BE000DF93CF931F930F93FF92EF92DF927B01BE
:102BF0008C01689406C0DA2EEF010E946C15FE016C
:102C0000E894A5912591359145915591A6F3EF0151
:102C10000E945C13FE019701A801DA9469F7DF9026
:102C2000EF90FF900F911F91CF91DF910895EE0FDC
:0E2C3000FF1F0590F491E02D0994F894FFCF5A
:102C3E00B400FFFFFFFF00E10000000000000900EC
:102C4E0004003D0004000D000800390008000100DA
:102C5E00FBFF410000C18081000000000000003435
:102C6E0004890555044A049B0459047704000000A6
:102C7E0000390748053D083C08600BFCFF0000A228
:022C8E000B0039
:00000001FF
